S01D0000416D70656C544B7265757A756E675F4D694B6F536F2E73726563D8
S11300000C94CC030C94E9030C94E9030C94E903D9
S11300100C94E9030C94E9030C94E9030C94E903AC
S11300200C94E9030C94E9030C94E9030C94E9039C
S11300300C94E9030C94F4040C94E9030C94E90380
S11300400C943D040C94E9030C94E9030C94E90327
S11300500C94E9030C94E9030C94E9030C94E9036C
S11300600C94E9030C94E903E407BC07C107C60731
S1130070CB07D007D507DA07DF070A0953756E6483
S113008061793A20000A0953617475726461793A9E
S11300902000094D6F6E646179202D2046726964D9
S11300A061793A200020616E64200020746F200082
S11300B00A0A52656D6F74655F6672657175656E67
S11300C06379206D6F6475733A0A000A0A4C6F777E
S11300D05F6672657175656E6379206D6F647573A3
S11300E03A0A000A486967685F6672657175656EE9
S11300F063795F6D6F6475733A0A000A4469652019
S1130100426574726965627361626C6175666C697B
S113011073746520646573206765776165686C74C2
S1130120656E20416D70656C73797374656D7320B1
S11301306973743A200A00094669726D77617265C1
S11301400A312E204669726D776172652D5665728B
S113015073696F6E206175736C6573656E0A322EF8
S1130160204669726D776172652D5570646174659E
S11301700A332E205A75727565636B207A756D206B
S113018048617570746D656E75650A0A57616568B6
S11301906C656E205369652065696E65204E756DCA
S11301A06D6572206175733A20000A4665686C6556
S11301B072206265696D204175736C6573656E208C
S11301C0766F6E205568727A65697420756E642046
S11301D0446174756D0A0A5A75727565636B207A89
S11301E075204665686C65726D656C64756E6765CF
S11301F06E206D697420303A20000A52657365746C
S113020020647572636820736F6674776172652DFC
S11302104665686C657220617573676566756568A7
S113022072740A0A5A75727565636B207A75204672
S113023065686C65726D656C64756E67656E206D5E
S1130240697420303A20000A537461636B2D4F7631
S11302506572666C6F7720646961676E6F73746929
S11302607A696572740A0A5A75727565636B207AC5
S113027075204665686C65726D656C64756E67653E
S11302806E206D697420303A20000A4665686C65FA
S113029072206265692064657220556562657270BA
S11302A072756566756E6720646573205352414D9F
S11302B020646961676E6F7374697A696572740A20
S11302C00A5A75727565636B207A75204665686C89
S11302D065726D656C64756E67656E206D697420FA
S11302E0303A20000A4665686C65722062656920B0
S11302F06465722055656265727072756566756EA7
S1130300672064657320466C6173682D537065695A
S113031063686572730A646961676E6F7374697A7E
S1130320696572740A0A5A75727565636B207A7509
S1130330204665686C65726D656C64756E67656E84
S1130340206D697420303A20000A55656265727721
S1130350616368756E67736665686C657220617544
S1130360662064656D207370616E6E756E6773666A
S113037075656872656E64656E0A5465696C20649F
S1130380657320726F74656E204C6963687465735D
S11303902061756620646572204E6562656E7374B3
S11303A072617373650A0A5A75727565636B207A94
S11303B075204665686C65726D656C64756E6765FD
S11303C06E206D697420303A20000A5565626572AA
S11303D077616368756E67736665686C65722061C2
S11303E075662064656D207370616E6E756E6773DB
S11303F06675656872656E64656E0A5465696C201D
S113040064657320726F74656E204C6963687465EB
S11304107320617566206465722048617570747319
S11304207472617373650A0A5A75727565636B2019
S11304307A75204665686C65726D656C64756E6767
S1130440656E206D697420303A20000A4B65696E30
S1130450204665686C657220646961676E6F7374A9
S1130460697A696572740A0A5A75727565636B20D4
S11304707A75204665686C65726D656C64756E6727
S1130480656E206D697420303A2000094665686CF9
S113049065726D656C64756E67656E0A0A4665689B
S11304A06C65726E616D6509436F64650A312E2057
S11304B04E6F5F6572726F7209307830300A322E77
S11304C0205265645F6C696768745F4D52093078C7
S11304D031300A332E205265645F6C696768745F3B
S11304E0535209307831310A342E20466C617368D6
S11304F05F6572726F7209307832300A352E20537C
S113050052414D5F6572726F7209307832310A362A
S11305102E20537461636B5F6572726F7209307859
S113052032320A372E2053575F4572726F72093088
S11305307838300A382E2054696D655F6572726FA1
S11305407209307838310A392E205A75727565630C
S11305506B207A756D2048617570746D656E756574
S11305600A0A576165686C656E2053696520656980
S11305706E65204E756D6D6572206175733A20004D
S11305800920416D70656C20696E7374616C6C69CF
S11305906572656E5C6465696E7374616C6C6965C3
S11305A072656E0A0A312E20416D70656C20696E89
S11305B07374616C6C696572656E0A322E20416DCC
S11305C070656C206465696E7374616C6C696572C6
S11305D0656E0A332E205A75727565636B207A75C1
S11305E06D2048617570746D656E75650A0A576192
S11305F065686C656E205369652065696E65204E7B
S1130600756D6D6572206175733A200009416D70D6
S1130610656C2D4B6F6E66696775726174696F6E78
S11306200A0A312E204B656E6E756E672061656E09
S11306306465726E0A322E205A757374616E647327
S1130640616266726167650A332E205A757374613C
S11306506E642061656E6465726E0A342E20426594
S113066074726965627361626C6175662061757329
S11306706C6573656E0A352E204265747269656215
S11306807361626C6175662061656E6465726E0A81
S1130690362E20446174756D5C5568727A65697490
S11306A0206175736C6573656E0A372E204461741E
S11306B0756D5C5568727A6569742061656E6465F0
S11306C0726E0A382E205A75727565636B207A75BE
S11306D06D2048617570746D656E75650A0A5761A1
S11306E065686C656E205369652065696E65204E8A
S11306F0756D6D6572206175733A20000A09416D4C
S113070070656C2D4C65697473797374656D6D6572
S11307106E75650A312E20416D70656C2D4B6F6EC0
S113072066696775726174696F6E0A322E20416D55
S113073070656C20696E7374616C6C696572656E4A
S11307405C6465696E7374616C6C696572656E0A6C
S1130750332E204665686C65726D656C64756E67D2
S1130760656E206175736C6573656E0A342E204660
S113077069726D776172650A0A576165686C656EA6
S1130780205369652065696E65204E756D6D6572CF
S1130790206175733A20000011241FBECFEFD8E00A
S11307A0DEBFCDBF11E0A0E0B1E0ECE5F2E102C0B4
S11307B005900D92A431B107D9F721E0A4E1B1E08D
S11307C001C01D92A137B207E1F70E94E7070C941C
S11307D02C090C9400004F9B07C080911B018111D0
S11307E003C081E080931B0180911B01813009F0DB
S11307F043C010921B01F8942A98299A419A2FEF2A
S113080087EA91E6215080409040E1F700C0000063
S11308102998289A88B18C7F88B9429A2FEF8BE760
S113082092E9215080409040E1F700C000004298D6
S1130830419A2FEF87EA91E6215080409040E1F7FA
S113084000C000004198409A2FEF8FE493EC2150B0
S113085080409040E1F700C00000299A2FEF87EA1A
S113086091E6215080409040E1F700C0000085B13E
S11308708C7F85B92A9A789408951F920F920FB6A7
S11308800F9211241F932F933F934F935F936F9372
S11308907F938F939F93AF93BF93CF93DF93EF9304
S11308A0FF9386E086BDC0E0D0E01FE01C9FF0010E
S11308B01D9FF00D1124E05EFE4F80859185A28579
S11308C0B3850197A105B105B1F51C9FF0011D9FEA
S11308D0F00D1124E05EFE4F84819581A681B781DD
S11308E00196A11DB11D84839583A683B78344819A
S11308F055816681778180819181A281B381481776
S113090059076A077B07B8F01C9FF0011D9FF00D83
S11309101124E05EFE4F14821582168217827894A9
S11309201C9FF0011D9FF00D1124E05EFE4F058415
S1130930F685E02D09952196C530D10509F0B6CF8D
S1130940FF91EF91DF91CF91BF91AF919F918F91E3
S11309507F916F915F914F913F912F911F910F90D4
S11309600FBE0F901F901895209A219A229A389AB8
S1130970399A3A9A569A85B1817085B985B182704F
S113098085B985B1847085B988B1817088B988B119
S1130990827088B988B1847088B98BB180788BB93A
S11309A08BB180748BB986E086BD85B5887F85BDA3
S11309B085B5836085BDEEE6F0E08081816080834B
S11309C086E494E29093850080938400E1E8F0E06B
S11309D08081887F8083808185608083EFE6F0E07A
S11309E080818160808308951F920F920FB60F92C9
S11309F011242F938F939F93AF93BF9386E494E234
S1130A009093850080938400809114019091150146
S1130A10A0911601B09117010196A11DB11D803856
S1130A202EEE920726E3A207B10549F08093140144
S1130A3090931501A0931601B093170113C010925F
S1130A401401109215011092160110921701809151
S1130A501C018F5F80931C0180911C01883110F070
S1130A6010921C01BF91AF919F918F912F910F9084
S1130A700FBE0F901F9018951092C50087E68093C3
S1130A80C400E1ECF0E08081886180830895E0ECAB
S1130A90F0E0908195FFFDCF8093C60008950F93F9
S1130AA01F93CF93DF93EC0110E0FE01E10FF11DE2
S1130AB00491802F0E9447051F5F0111F6CFDF913B
S1130AC0CF911F910F910895EF92FF920F931F936F
S1130AD0CF93DF93CDB7DEB72C970FB6F894DEBF74
S1130AE00FBECDBF19821A821B821C82FE0135966D
S1130AF028E0DF011D922A95E9F72AE0AE014F5F55
S1130B005F4F0E94FA088E010F5F1F4F7E01BDE008
S1130B10EB0EF11CF80181918F010E9447050E151F
S1130B201F05C1F72C960FB6F894DEBF0FBECDBFDC
S1130B30DF91CF911F910F91FF90EF900895E0EC1A
S1130B40F0E080818823ECF78091C60008952A9A0A
S1130B50409A2FEF33E284EF90E021503040804000
S1130B609040D9F700C000002A98299A419A2FEFA3
S1130B7037EA81E6215030408040E1F700C00000B0
S1130B802998289A9FEF2BE732E991502040304072
S1130B90E1F700C0000088B18C7F88B9429A8FEFDA
S1130BA09BE722E9815090402040E1F700C000001B
S1130BB0299A4298419A3FEF87EA91E63150804062
S1130BC09040E1F700C000004198409A2FEF3BE7C6
S1130BD082E9215030408040E1F700C0000085B137
S1130BE08C7F85B9089585B1887F85B942984098EE
S1130BF041982FEF8BE792E9215080409040E1F734
S1130C0000C00000419A2FEF83ED90E32150804013
S1130C109040E1F700C00000089585B1887F85B950
S1130C2088B1887F88B92A9A089587E391E00E9461
S1130C304F050E949F0580931F0180911F010E9410
S1130C40470580911F0108958BEF90E00E944F05A6
S1130C5083EE90E00E944F0582E990E00E944F05E8
S1130C606091120170E080E090E00E9464058BEADC
S1130C7090E00E944F056091110170E06F5F7F4F1B
S1130C80882777FD8095982F0E94640585E890E079
S1130C900E944F0560910D0170E080E090E00E9499
S1130CA064058BEA90E00E944F0560910C0170E0AE
S1130CB06F5F7F4F882777FD8095982F0E9464058A
S1130CC08AE790E00E944F056091060170E080E0A1
S1130CD090E00E9464058BEA90E00E944F056091C9
S1130CE0050170E06F5F7F4F882777FD8095982F0F
S1130CF00E9464058BEC90E00E944F0582E990E02D
S1130D000E944F056091100170E080E090E00E9425
S1130D1064058BEA90E00E944F0560910F0170E03A
S1130D206F5F7F4F882777FD8095982F0E94640519
S1130D3085E890E00E944F0560910B0170E080E02F
S1130D4090E00E9464058BEA90E00E944F05609158
S1130D500A0170E06F5F7F4F882777FD8095982F99
S1130D600E94640585EA90E00E944F0560910901A4
S1130D7070E080E090E00E9464058BEA90E00E94BD
S1130D804F056091080170E06F5F7F4F882777FD02
S1130D908095982F0E9464058AE790E00E944F0591
S1130DA06091040170E080E090E00E9464058BEAA9
S1130DB090E00E944F056091030170E06F5F7F4FE8
S1130DC0882777FD8095982F0E94640585EA90E036
S1130DD00E944F056091020170E080E090E00E9463
S1130DE064058BEA90E00E944F056091010170E078
S1130DF06F5F7F4F882777FD8095982F0E94640549
S1130E0080EB90E00E944F0582E990E00E944F053C
S1130E1060911A0170E080E090E00E9464058BEA22
S1130E2090E00E944F0560910E0170E06F5F7F4F6C
S1130E30882777FD8095982F0E94640585E890E0C7
S1130E400E944F056091190170E080E090E00E94DB
S1130E5064058BEA90E00E944F056091070170E001
S1130E606F5F7F4F882777FD8095982F0E946405D8
S1130E708AE790E00E944F056091180170E080E0DD
S1130E8090E00E9464058BEA90E00E944F05609117
S1130E90000170E06F5F7F4F882777FD8095982F62
S1130EA00E94640508958CE096E00E944F050E941C
S1130EB09F0580931F0180911F010E944705809127
S1130EC01F01805329F0843029F40E9424060895D8
S1130ED00E946B0708958CEF96E00E944F050E94D4
S1130EE09F0580931F0180911F010E9447058091F7
S1130EF01F018053823061F018F4813031F008957D
S1130F00833049F0843051F008950E9453070895C6
S1130F100E94910708950E94A40708950E9415064F
S1130F20089580E895E00E944F050E949F058093F4
S1130F301F0180911F010E94470580911F0180338A
S1130F4011F40E946B0708958BE894E00E944F050A
S1130F500E949F0580931F0180911F010E944705F5
S1130F6080911F01805390E08930910578F5FC0150
S1130F70EC5CFF4F0C94F4088BE494E00E944F0562
S1130F8008958AEC93E00E944F05089589E493E064
S1130F900E944F05089584EE92E00E944F05089543
S1130FA08AE892E00E944F05089587E492E00E9447
S1130FB04F0508958AEF91E00E944F0508958AEA4B
S1130FC091E00E944F0508950E946B0708950E94C6
S1130FD0B4040E943C0584EF91E0A0E0B0E080936B
S1130FE02F0190933001A0933101B093320181E03D
S1130FF080933B018BEE93E090933D0180933C0101
S113100081E090E0A0E0B0E0809337019093380154
S1131010A0933901B0933A01109233011092340134
S11310201092350110923601789487E080936E0116
S11310308DE080931C01C1E012E0D3E00E946B07B5
S113104080911C0181110CC080916E01873019F4CC
S1131050C0936E0105C080916E018F5F80936E0115
S113106080916E018630E9F118F4813028F4B9C01A
S1131070873009F475C0B5C090911C0180911A01A4
S1131080981758F090911C0180910E01981728F43C
S1131090109370010E940D06D1CF90911C01809194
S11310A01201981758F090911C0180911101981722
S11310B028F4109270010E94A705C0CF90911C01E2
S11310C080911001981708F4B9CF90911C01809178
S11310D00F01891708F4B2CFC09370010E94F30581
S11310E0ADCF90911C0180911901981758F09091FF
S11310F01C0180910701981728F4109370010E9435
S11311000D069CCF90911C0180910B01981730F033
S113111090911C0180910A01981750F08091090167
S1131120863158F090911C0180910801891728F0AC
S1131130C09370010E94F30581CF90911C018091AE
S11311400D01981708F47ACF90911C0180910C013D
S1131150981708F073CF109270010E94A7056ECF04
S113116090911C0180911801981758F090911C01DE
S113117080910001981728F4109370010E940D06C5
S11311805DCF90911C0180910401981730F09091EB
S11311901C0180910301981760F090911C018091CB
S11311A00201981758F090911C0180910101891750
S11311B028F0C09370010E94F30540CF90911C0168
S11311C080910601981708F439CF90911C01809101
S11311D00501981708F032CF109270010E94A705FC
S11311E02DCFD09370012ACFEE0FFF1F0590F491FD
S11311F0E02D0994BB27FA01A62F6217710581051A
S11312009105330B30FB66F0AA27660F771F881F02
S1131210991FAA1FA21710F0A21B63953850A9F7B3
S1131220A05DAA3308F0A95DA19336F7B111B1937B
S11312301082CA010C941C09DC01FC01672F719116
S11312407723E1F7329704C07C916D9370836291A8
S10F1250AE17BF07C8F30895F894FFCF51
S113125C0817140C09130D0417160805150904179F
S107126C141305004E
S9030000FC
